:100000000C9434000C9420010C9420010C942001D9
:100010000C9420010C9420010C9420010C942001DC
:100020000C9420010C9420010C9420010C942001CC
:100030000C9420010C9420010C9420010C942001BC
:100040000C9420010C9420010C9420010C942001AC
:100050000C9420010C9420010C9420010C9420019C
:100060000C9420010C94200111241FBECFEFD8E086
:10007000DEBFCDBF0E94C1000C943E00F894FFCFBC
:1000800048656C6C6F2C20746869732069732073E9
:10009000657269616C206563686F206578616D7059
:0600A0006C65210A20003E
:1000A600CF92DF92EF92FF920F931F93CF93DF933E
:1000B600AC019C01329522952F7023273F70232790
:1000C600A7E4B3E00E94F8008C01169507951695F3
:1000D60007951695079520E137E2029FC001039F19
:1000E600900D129F900D11248A01081B190B6801AF
:1000F600D694C794D694C7949601ABE7B4E10E9410
:10010600F8007C01F694E794CDECEC9ED12D1124F9
:10011600D695D695D69580E38D0F0E941201DD0FF8
:100126008D2F880F880FD80F8E2D8D1B805D0E9416
:10013600120124E62E9DC0012F9D900D1124081B4F
:10014600190B0C9FC12D1124C695C695C69580E343
:100156008C0F0E941201CC0F8C2F880F880FC80FAE
:10016600802F8C1B805D0E941201DF91CF911F9121
:0C0176000F91FF90EF90DF90CF90089564
:100182008AB182608AB987E690E00E9407012FEF68
:1001920083ED90E3215080409040E1F700C00000E1
:1001A20060E870E080E00E94E20080E090E00E945F
:1001B20053008AE00E9412010E9419010E9412015A
:0201C200FBCF71
:1001C400CF92DF92EF926B01E82E06C09FEFC91A1F
:1001D400D90AE90A0E941201F6018491E7FC8081A0
:0C01E4008111F4CFEF90DF90CF900895D0
:1001F000A29FB001B39FC001A39F700D811D112468
:0E020000911DB29F700D811D1124911D089556
:10020E009093C5008093C40088E98093C10086E274
:06021E008093C200089568
:0E0224009091C00095FFFCCF8093C600089516
:0E0232008091C0008823E4F78091C6000895F3
:040240000C9400001A
:00000001FF
