:100000000C9434000C9499000C9499000C94990071
:100010000C9499000C9499000C9499000C949900FC
:100020000C9499000C9499000C9499000C949900EC
:100030000C9499000C9499000C9499000C949900DC
:100040000C9499000C9499000C9499000C949900CC
:100050000C9499000C9499000C9499000C949900BC
:100060000C9499000C94990011241FBECFEFD8E096
:10007000DEBFCDBF0E9440000C943E00F894FFCF3D
:100080002FEF83ED90E3215080409040E1F700C0D6
:1000900000008AB188608AB98AB180618AB98AB160
:1000A00080648AB98AB180628AB984B1826084B975
:1000B00084B1846084B984B1816084B985B1816080
:1000C00085B9EFEFF0E722E0E150F0402040E1F7A2
:1000D00000C0000085B18E7F85B98BB188608BB977
:1000E0008BB18F7E8BB985B1846085B985B18D7FE9
:1000F00085B984E687BD88E288BD84B5806A84BD01
:1001000084B5896084BD85B5816085BD91E087B582
:10011000890F87BD87B58F3F09F49FEF87B58111A0
:1001200001C091E0EFE3FCE93197F1F700C0000076
:02013000EECF10
:040132000C94000029
:00000001FF
