:100000000C943A000C945F000C945F000C945F0019
:100010000C945F000C945F000C945F000C945F00E4
:100020000C945F000C945F000C945F000C945F00D4
:100030000C945F000C945F000C945F000C945F00C4
:100040000C945F000C945F000C945F000C945F00B4
:100050000C945F000C945F000C945F000C945F00A4
:100060000C945F000C945F000C945F000C945F0094
:100070000C945F0011241FBECFEFD4E0DEBFCDBFD4
:0C0080000E9446000C944400F894FFCF4E
:10008C0081E08AB91BB82FEF89E698E121508040B6
:10009C009040E1F700C0000081E08BB92FEF8DE3B9
:1000AC0099E4215080409040E1F700C000001BB85B
:0200BC00EACF89
:0400BE000C9400009E
:00000001FF
