:100000000C942A000C9450000C9450000C94500056
:100010000C9450000C9450000C9450000C94500020
:100020000C9450000C9450000C9450000C94500010
:100030000C9450000C9450000C9450000C94500000
:100040000C9450000C9450000C9450000C945000F0
:100050000C94500011241FBECFE5D4E0DEBFCDBF0D
:0C0060000E9436000C943400F894FFCF8E
:10006C0083E08ABB81E08BBB82E08BBB2FEF84E308
:10007C009CE0215080409040E1F700C000001BBA8A
:10008C002FEF84E39CE0215080409040E1F700C0CA
:04009C000000EACFA7
:0400A0000C940000BC
:00000001FF
