:100000000C9434000C9464000C9464000C94640010
:100010000C9464000C9464000C9464000C946400D0
:100020000C9464000C9464000C9464000C946400C0
:100030000C9464000C9464000C9464000C946400B0
:100040000C9464000C9464000C9464000C946400A0
:100050000C9464000C9464000C9464000C94640090
:100060000C9464000C94640011241FBECFEFD8E000
:10007000DEBFCDBF0E9440000C943E00F894FFCF3D
:100080008AB180648AB917BC84B5806A84BD84B59E
:10009000836084BD85B5826085BD8FE787BD2FEF06
:1000A0008BE49DE1215080409040E1F700C00000CA
:1000B00083E387BD2FEF87E893E121508040904094
:0800C000E1F700C00000E9CFE8
:0400C8000C94000094
:00000001FF
