:100000000C9472000C9499000C9499000C94990033
:100010000C9499000C9499000C9499000C949900FC
:100020000C9499000C9499000C9499000C949900EC
:100030000C9499000C9499000C9499000C949900DC
:100040000C9499000C9499000C9499000C949900CC
:100050000C9499000C9499000C9499000C949900BC
:100060000C9499000C9499000C9499000C949900AC
:100070000C9499000C9499000C9499000C9499009C
:100080000C9499000C9499000C9499000C9499008C
:100090000C9499000C9499000C9499000C9499007C
:1000A0000C9499000C9499000C9499000C9499006C
:1000B0000C9499000C9499000C9499000C9499005C
:1000C0000C9499000C9499000C9499000C9499004C
:1000D0000C9499000C9499000C9499000C9499003C
:1000E0000C94990011241FBECFEFD1E2DEBFCDBF2B
:1000F00000E00CBF0E9480000C947E00F894FFCFBB
:1001000080E884B915B82FEF89E698E12150804046
:100110009040E1F700C0000080E885B92FEF8DE343
:1001200099E4215080409040E1F700C0000015B8EC
:02013000EACF14
:040132000C94000029
:00000001FF
