:1000000029C0000054C0000052C0000050C00000D1
:100010004EC000004CC000004AC0000048C00000B4
:1000200046C0000044C0000042C0000040C00000C4
:100030003EC000003CC000003AC0000038C00000D4
:1000400036C0000034C0000032C0000030C00000E4
:100050002EC0000011241FBECFE5D4E0DEBFCDBF0F
:080060000AD002C0F894FFCFA2
:0E006800EC0120D01CD0CE011BD0CE011AD04E
:10007600D09AD19AD89AD99A2FEF84E39CE021504E
:1000860080409040E1F700C00000D9982FEF84E34C
:100096009CE0215080409040E1F700C00000EBCF8B
:0200A6000895BB
:0200A8000895B9
:0200AA00DCDF99
:0200AC000895B5
:0200AE00A8CFD9
:00000001FF
