:100000000C945A000C947A010C947A010C947A01A5
:100010000C947A010C947A010C947A010C947A0174
:100020000C947A010C947A010C947A010C947A0164
:100030000C947A010C947A010C947A010C947A0154
:100040000C947A010C947A010C947A010C947A0144
:100050000C947A010C947A010C947A010C947A0134
:100060000C947A010C947A010C947A010C947A0124
:100070000C947A010C947A010C947A010C947A0114
:100080000C947A010C947A010C947A010C947A0104
:100090000C947A010C947A010C947A010C947A01F4
:1000A0000C947A010C947A010C947A010C947A01E4
:1000B0000C947A0111241FBECFEFD8E0DEBFCDBF74
:0C00C0000E94E4000C946400F894FFCF50
:1000CC0041444320696E6974206F6B200A004132F1
:1000DC002076616C3A200041332076616C3A200026
:1000EC00CF92DF92EF92FF920F931F93CF93DF93F8
:1000FC00AC019C01329522952F7023273F7023274A
:10010C00A7E4B3E00E9432018C0116950795169571
:10011C0007951695079520E137E2029FC001039FD2
:10012C00900D129F900D11248A01081B190B680168
:10013C00D694C794D694C7949601ABE7B4E10E94C9
:10014C0032017C01F694E794CDECEC9ED12D112478
:10015C00D695D695D69580E38D0F0E947301DD0F51
:10016C008D2F880F880FD80F8E2D8D1B805D0E94D0
:10017C00730124E62E9DC0012F9D900D1124081BA8
:10018C00190B0C9FC12D1124C695C695C69580E3FD
:10019C008C0F0E947301CC0F8C2F880F880FC80F07
:1001AC00802F8C1B805D0E947301DF91CF911F917A
:0C01BC000F91FF90EF90DF90CF9008951E
:1001C8008AB182608AB987E690E00E945A012FEFCF
:1001D80083ED90E3215080409040E1F700C000009B
:1001E8000E944F016CEC70E080E00E941C010E94AC
:1001F80065010E944101EC016AED70E080E00E9417
:100208001C01CE010E9476008AE00E9473010E94C0
:100218006C010E944101EC0163EE70E080E00E94F5
:100228001C01CE010E9476008AE00E947301DFCF94
:10023800CF92DF92EF926B01E82E06C09FEFC91AAA
:10024800D90AE90A0E947301F6018491E7FC8081CA
:0C0258008111F4CFEF90DF90CF9008955B
:10026400A29FB001B39FC001A39F700D811D1124F3
:0E027400911DB29F700D811D1124911D0895E2
:10028200EAE7F0E080818064808380917A0086FDD5
:0C029200FCCF80917800909179000895D5
:10029E00EAE7F0E0808187688083ECE7F0E0808118
:0602AE00806C80830895BE
:1002B4009093C5008093C40088E98093C10086E2CE
:0602C4008093C2000895C2
:0E02CA00ECE7F0E010828081826C8083089562
:0E02D800ECE7F0E010828081836C8083089553
:0E02E6009091C00095FFFCCF8093C600089554
:0402F4000C94000066
:00000001FF
