:100000000C9434000C9459000C9459000C94590031
:100010000C9459000C9459000C9459000C945900FC
:100020000C9459000C9459000C9459000C945900EC
:100030000C9459000C9459000C9459000C945900DC
:100040000C9459000C9459000C9459000C945900CC
:100050000C9459000C9459000C9459000C945900BC
:100060000C9459000C94590011241FBECFEFD8E016
:10007000DEBFCDBF0E9440000C943E00F894FFCF3D
:1000800082E084B915B82FEF83ED90E321508040D2
:100090009040E1F700C0000082E085B92FEF83EDCA
:1000A00090E3215080409040E1F700C0000015B877
:0200B000EACF95
:0400B2000C940000AA
:00000001FF
