:100000000C942A000C948A000C9436000C94B400D2
:100010000C94B4000C94B4000C94B4000C94B40090
:100020000C94B4000C94B4000C94B4000C94B40080
:100030000C94B4000C94B4000C94B4000C94B40070
:100040000C94B4000C94B4000C94B4000C94B40060
:100050000C94B40011241FBECFE5D4E0DEBFCDBFA9
:0C0060000E946A000C94A900F894FFCFE5
:10006C001F920F920FB60F9211242F933F934F9321
:10007C008F939F9320E030E01AC08BB38E7F8BBBA5
:10008C004FE78AE196E0415080409040E1F700C094
:10009C0000008BB381608BBB4FE78AE196E0415047
:1000AC0080409040E1F700C000002F5F3F4F2330AD
:1000BC0031051CF39F918F914F913F912F910F9090
:0800CC000FBE0F901F90189564
:1000D4008AB381608ABB84B3806184BB85B3806149
:1000E40085BB8BB381608BBB8BB780648BBF8BB7B5
:1000F40080688BBF85B7826085BF85B78E7F85BFDB
:1001040085B7886085BF85B78B7F85BF7894FFCF1F
:100114001F920F920FB60F9211242F938F939F93D8
:100124008BB38E7F8BBB2FEF84E39CE02150804008
:100134009040E1F700C000008BB381608BBB9F91BE
:0E0144008F912F910F900FBE0F901F90189566
:10015200EC010E94B9000E94B800CE010E94BA00D0
:06016200CE010E94B60070
:040168000C940000F3
:04016C000E943400B9
:020170000895F0
:020172000895EE
:020174000895EC
:00000001FF
